{
  "_format": "hh-sol-artifact-1",
  "contractName": "TrustScoreRegistry",
  "sourceName": "contracts/TrustScoreRegistry.sol",
  "abi": [
    {
      "anonymous": false,
      "inputs": [
        {
          "indexed": true,
          "internalType": "address",
          "name": "reviewer",
          "type": "address"
        },
        {
          "indexed": true,
          "internalType": "address",
          "name": "reviewee",
          "type": "address"
        },
        {
          "indexed": true,
          "internalType": "bytes32",
          "name": "key",
          "type": "bytes32"
        },
        {
          "indexed": false,
          "internalType": "bytes",
          "name": "val",
          "type": "bytes"
        }
      ],
      "name": "ReviewCreated",
      "type": "event"
    },
    {
      "inputs": [
        {
          "components": [
            {
              "internalType": "address",
              "name": "reviewee",
              "type": "address"
            },
            {
              "internalType": "bytes32",
              "name": "key",
              "type": "bytes32"
            },
            {
              "internalType": "bytes",
              "name": "val",
              "type": "bytes"
            }
          ],
          "internalType": "struct TrustScoreRegistry.Review[]",
          "name": "_reviews",
          "type": "tuple[]"
        }
      ],
      "name": "createReview",
      "outputs": [],
      "stateMutability": "nonpayable",
      "type": "function"
    },
    {
      "inputs": [
        {
          "internalType": "address",
          "name": "",
          "type": "address"
        },
        {
          "internalType": "address",
          "name": "",
          "type": "address"
        },
        {
          "internalType": "bytes32",
          "name": "",
          "type": "bytes32"
        }
      ],
      "name": "registry",
      "outputs": [
        {
          "internalType": "bytes",
          "name": "",
          "type": "bytes"
        }
      ],
      "stateMutability": "view",
      "type": "function"
    }
  ],
  "bytecode": "0x608060405234801561001057600080fd5b50610be8806100206000396000f3fe608060405234801561001057600080fd5b50600436106100365760003560e01c8063db70ed271461003b578063e6d970aa14610057575b600080fd5b6100556004803603810190610050919061066a565b610087565b005b610071600480360381019061006c91906106b3565b610252565b60405161007e9190610785565b60405180910390f35b60005b815181101561024e5760008282815181106100a8576100a76107a7565b5b60200260200101519050806000015173ffffffffffffffffffffffffffffffffffffffff163373ffffffffffffffffffffffffffffffffffffffff1603610124576040517f08c379a000000000000000000000000000000000000000000000000000000000815260040161011b90610833565b60405180910390fd5b80604001516000803373ffffffffffffffffffffffffffffffffffffffff1673ffffffffffffffffffffffffffffffffffffffff1681526020019081526020016000206000836000015173ffffffffffffffffffffffffffffffffffffffff1673ffffffffffffffffffffffffffffffffffffffff16815260200190815260200160002060008360200151815260200190815260200160002090816101c99190610a69565b508060200151816000015173ffffffffffffffffffffffffffffffffffffffff163373ffffffffffffffffffffffffffffffffffffffff167f1325b029a379108f92bd42afc7b8f36c56521e69d2d756de9a73bbaf692d7dd284604001516040516102349190610785565b60405180910390a4508061024790610b6a565b905061008a565b5050565b60006020528260005260406000206020528160005260406000206020528060005260406000206000925092505050805461028b90610882565b80601f01602080910402602001604051908101604052809291908181526020018280546102b790610882565b80156103045780601f106102d957610100808354040283529160200191610304565b820191906000526020600020905b8154815290600101906020018083116102e757829003601f168201915b505050505081565b6000604051905090565b600080fd5b600080fd5b600080fd5b6000601f19601f8301169050919050565b7f4e487b7100000000000000000000000000000000000000000000000000000000600052604160045260246000fd5b61036e82610325565b810181811067ffffffffffffffff8211171561038d5761038c610336565b5b80604052505050565b60006103a061030c565b90506103ac8282610365565b919050565b600067ffffffffffffffff8211156103cc576103cb610336565b5b602082029050602081019050919050565b600080fd5b600080fd5b600080fd5b600073ffffffffffffffffffffffffffffffffffffffff82169050919050565b6000610417826103ec565b9050919050565b6104278161040c565b811461043257600080fd5b50565b6000813590506104448161041e565b92915050565b6000819050919050565b61045d8161044a565b811461046857600080fd5b50565b60008135905061047a81610454565b92915050565b600080fd5b600067ffffffffffffffff8211156104a05761049f610336565b5b6104a982610325565b9050602081019050919050565b82818337600083830152505050565b60006104d86104d384610485565b610396565b9050828152602081018484840111156104f4576104f3610480565b5b6104ff8482856104b6565b509392505050565b600082601f83011261051c5761051b610320565b5b813561052c8482602086016104c5565b91505092915050565b60006060828403121561054b5761054a6103e2565b5b6105556060610396565b9050600061056584828501610435565b60008301525060206105798482850161046b565b602083015250604082013567ffffffffffffffff81111561059d5761059c6103e7565b5b6105a984828501610507565b60408301525092915050565b60006105c86105c3846103b1565b610396565b905080838252602082019050602084028301858111156105eb576105ea6103dd565b5b835b8181101561063257803567ffffffffffffffff8111156106105761060f610320565b5b80860161061d8982610535565b855260208501945050506020810190506105ed565b5050509392505050565b600082601f83011261065157610650610320565b5b81356106618482602086016105b5565b91505092915050565b6000602082840312156106805761067f610316565b5b600082013567ffffffffffffffff81111561069e5761069d61031b565b5b6106aa8482850161063c565b91505092915050565b6000806000606084860312156106cc576106cb610316565b5b60006106da86828701610435565b93505060206106eb86828701610435565b92505060406106fc8682870161046b565b9150509250925092565b600081519050919050565b600082825260208201905092915050565b60005b83811015610740578082015181840152602081019050610725565b60008484015250505050565b600061075782610706565b6107618185610711565b9350610771818560208601610722565b61077a81610325565b840191505092915050565b6000602082019050818103600083015261079f818461074c565b905092915050565b7f4e487b7100000000000000000000000000000000000000000000000000000000600052603260045260246000fd5b600082825260208201905092915050565b7f557365722063616e6e6f7420726576696577207468656d73656c766573000000600082015250565b600061081d601d836107d6565b9150610828826107e7565b602082019050919050565b6000602082019050818103600083015261084c81610810565b9050919050565b7f4e487b7100000000000000000000000000000000000000000000000000000000600052602260045260246000fd5b6000600282049050600182168061089a57607f821691505b6020821081036108ad576108ac610853565b5b50919050565b60008190508160005260206000209050919050565b60006020601f8301049050919050565b600082821b905092915050565b6000600883026109157fffffffffffffffffffffffffffffffffffffffffffffffffffffffffffffffff826108d8565b61091f86836108d8565b95508019841693508086168417925050509392505050565b6000819050919050565b6000819050919050565b600061096661096161095c84610937565b610941565b610937565b9050919050565b6000819050919050565b6109808361094b565b61099461098c8261096d565b8484546108e5565b825550505050565b600090565b6109a961099c565b6109b4818484610977565b505050565b5b818110156109d8576109cd6000826109a1565b6001810190506109ba565b5050565b601f821115610a1d576109ee816108b3565b6109f7846108c8565b81016020851015610a06578190505b610a1a610a12856108c8565b8301826109b9565b50505b505050565b600082821c905092915050565b6000610a4060001984600802610a22565b1980831691505092915050565b6000610a598383610a2f565b9150826002028217905092915050565b610a7282610706565b67ffffffffffffffff811115610a8b57610a8a610336565b5b610a958254610882565b610aa08282856109dc565b600060209050601f831160018114610ad35760008415610ac1578287015190505b610acb8582610a4d565b865550610b33565b601f198416610ae1866108b3565b60005b82811015610b0957848901518255600182019150602085019450602081019050610ae4565b86831015610b265784890151610b22601f891682610a2f565b8355505b6001600288020188555050505b505050505050565b7f4e487b7100000000000000000000000000000000000000000000000000000000600052601160045260246000fd5b6000610b7582610937565b91507fffffffffffffffffffffffffffffffffffffffffffffffffffffffffffffffff8203610ba757610ba6610b3b565b5b60018201905091905056fea2646970667358221220863a623cafbde3d212dc8110d5c720d35d8a4fb231699bfa391340a1e283ca7e64736f6c63430008120033",
  "linkReferences": {},
  "deployedLinkReferences": {}
}