{
  "_format": "hh-sol-artifact-1",
  "contractName": "TrustSightSBT",
  "sourceName": "contracts/TrustSightSBT.sol",
  "abi": [
    {
      "inputs": [],
      "stateMutability": "nonpayable",
      "type": "constructor"
    },
    {
      "anonymous": false,
      "inputs": [
        {
          "indexed": true,
          "internalType": "address",
          "name": "owner",
          "type": "address"
        },
        {
          "indexed": true,
          "internalType": "address",
          "name": "approved",
          "type": "address"
        },
        {
          "indexed": true,
          "internalType": "uint256",
          "name": "tokenId",
          "type": "uint256"
        }
      ],
      "name": "Approval",
      "type": "event"
    },
    {
      "anonymous": false,
      "inputs": [
        {
          "indexed": true,
          "internalType": "address",
          "name": "owner",
          "type": "address"
        },
        {
          "indexed": true,
          "internalType": "address",
          "name": "operator",
          "type": "address"
        },
        {
          "indexed": false,
          "internalType": "bool",
          "name": "approved",
          "type": "bool"
        }
      ],
      "name": "ApprovalForAll",
      "type": "event"
    },
    {
      "anonymous": false,
      "inputs": [
        {
          "indexed": true,
          "internalType": "address",
          "name": "previousOwner",
          "type": "address"
        },
        {
          "indexed": true,
          "internalType": "address",
          "name": "newOwner",
          "type": "address"
        }
      ],
      "name": "OwnershipTransferred",
      "type": "event"
    },
    {
      "anonymous": false,
      "inputs": [
        {
          "indexed": true,
          "internalType": "address",
          "name": "from",
          "type": "address"
        },
        {
          "indexed": true,
          "internalType": "address",
          "name": "to",
          "type": "address"
        },
        {
          "indexed": true,
          "internalType": "uint256",
          "name": "tokenId",
          "type": "uint256"
        }
      ],
      "name": "Transfer",
      "type": "event"
    },
    {
      "inputs": [
        {
          "internalType": "address",
          "name": "to",
          "type": "address"
        },
        {
          "internalType": "uint256",
          "name": "tokenId",
          "type": "uint256"
        }
      ],
      "name": "approve",
      "outputs": [],
      "stateMutability": "nonpayable",
      "type": "function"
    },
    {
      "inputs": [
        {
          "internalType": "address",
          "name": "owner",
          "type": "address"
        }
      ],
      "name": "balanceOf",
      "outputs": [
        {
          "internalType": "uint256",
          "name": "",
          "type": "uint256"
        }
      ],
      "stateMutability": "view",
      "type": "function"
    },
    {
      "inputs": [
        {
          "internalType": "uint256",
          "name": "tokenId",
          "type": "uint256"
        }
      ],
      "name": "getApproved",
      "outputs": [
        {
          "internalType": "address",
          "name": "",
          "type": "address"
        }
      ],
      "stateMutability": "view",
      "type": "function"
    },
    {
      "inputs": [
        {
          "internalType": "address",
          "name": "owner",
          "type": "address"
        },
        {
          "internalType": "address",
          "name": "operator",
          "type": "address"
        }
      ],
      "name": "isApprovedForAll",
      "outputs": [
        {
          "internalType": "bool",
          "name": "",
          "type": "bool"
        }
      ],
      "stateMutability": "view",
      "type": "function"
    },
    {
      "inputs": [
        {
          "internalType": "address",
          "name": "to",
          "type": "address"
        },
        {
          "internalType": "string",
          "name": "_tokenURI",
          "type": "string"
        }
      ],
      "name": "mint",
      "outputs": [],
      "stateMutability": "nonpayable",
      "type": "function"
    },
    {
      "inputs": [],
      "name": "name",
      "outputs": [
        {
          "internalType": "string",
          "name": "",
          "type": "string"
        }
      ],
      "stateMutability": "view",
      "type": "function"
    },
    {
      "inputs": [],
      "name": "owner",
      "outputs": [
        {
          "internalType": "address",
          "name": "",
          "type": "address"
        }
      ],
      "stateMutability": "view",
      "type": "function"
    },
    {
      "inputs": [
        {
          "internalType": "uint256",
          "name": "tokenId",
          "type": "uint256"
        }
      ],
      "name": "ownerOf",
      "outputs": [
        {
          "internalType": "address",
          "name": "",
          "type": "address"
        }
      ],
      "stateMutability": "view",
      "type": "function"
    },
    {
      "inputs": [],
      "name": "renounceOwnership",
      "outputs": [],
      "stateMutability": "nonpayable",
      "type": "function"
    },
    {
      "inputs": [
        {
          "internalType": "address",
          "name": "from",
          "type": "address"
        },
        {
          "internalType": "address",
          "name": "to",
          "type": "address"
        },
        {
          "internalType": "uint256",
          "name": "tokenId",
          "type": "uint256"
        }
      ],
      "name": "safeTransferFrom",
      "outputs": [],
      "stateMutability": "nonpayable",
      "type": "function"
    },
    {
      "inputs": [
        {
          "internalType": "address",
          "name": "from",
          "type": "address"
        },
        {
          "internalType": "address",
          "name": "to",
          "type": "address"
        },
        {
          "internalType": "uint256",
          "name": "tokenId",
          "type": "uint256"
        },
        {
          "internalType": "bytes",
          "name": "data",
          "type": "bytes"
        }
      ],
      "name": "safeTransferFrom",
      "outputs": [],
      "stateMutability": "nonpayable",
      "type": "function"
    },
    {
      "inputs": [
        {
          "internalType": "address",
          "name": "operator",
          "type": "address"
        },
        {
          "internalType": "bool",
          "name": "approved",
          "type": "bool"
        }
      ],
      "name": "setApprovalForAll",
      "outputs": [],
      "stateMutability": "nonpayable",
      "type": "function"
    },
    {
      "inputs": [
        {
          "internalType": "uint256",
          "name": "_tokenId",
          "type": "uint256"
        },
        {
          "internalType": "string",
          "name": "_tokenURI",
          "type": "string"
        }
      ],
      "name": "setTokenURI",
      "outputs": [],
      "stateMutability": "nonpayable",
      "type": "function"
    },
    {
      "inputs": [
        {
          "internalType": "bytes4",
          "name": "interfaceId",
          "type": "bytes4"
        }
      ],
      "name": "supportsInterface",
      "outputs": [
        {
          "internalType": "bool",
          "name": "",
          "type": "bool"
        }
      ],
      "stateMutability": "view",
      "type": "function"
    },
    {
      "inputs": [],
      "name": "symbol",
      "outputs": [
        {
          "internalType": "string",
          "name": "",
          "type": "string"
        }
      ],
      "stateMutability": "view",
      "type": "function"
    },
    {
      "inputs": [
        {
          "internalType": "uint256",
          "name": "",
          "type": "uint256"
        }
      ],
      "name": "tokenIdToURI",
      "outputs": [
        {
          "internalType": "string",
          "name": "",
          "type": "string"
        }
      ],
      "stateMutability": "view",
      "type": "function"
    },
    {
      "inputs": [
        {
          "internalType": "uint256",
          "name": "_tokenId",
          "type": "uint256"
        }
      ],
      "name": "tokenURI",
      "outputs": [
        {
          "internalType": "string",
          "name": "",
          "type": "string"
        }
      ],
      "stateMutability": "view",
      "type": "function"
    },
    {
      "inputs": [
        {
          "internalType": "address",
          "name": "from",
          "type": "address"
        },
        {
          "internalType": "address",
          "name": "to",
          "type": "address"
        },
        {
          "internalType": "uint256",
          "name": "tokenId",
          "type": "uint256"
        }
      ],
      "name": "transferFrom",
      "outputs": [],
      "stateMutability": "nonpayable",
      "type": "function"
    },
    {
      "inputs": [
        {
          "internalType": "address",
          "name": "newOwner",
          "type": "address"
        }
      ],
      "name": "transferOwnership",
      "outputs": [],
      "stateMutability": "nonpayable",
      "type": "function"
    }
  ],
  "bytecode": "0x60806040523480156200001157600080fd5b506040518060400160405280600e81526020017f54727573745369676874205342540000000000000000000000000000000000008152506040518060400160405280600481526020017f545342540000000000000000000000000000000000000000000000000000000081525081600090816200008f919062000412565b508060019081620000a1919062000412565b505050620000c4620000b8620000ca60201b60201c565b620000d260201b60201c565b620004f9565b600033905090565b6000600660009054906101000a900473ffffffffffffffffffffffffffffffffffffffff16905081600660006101000a81548173ffffffffffffffffffffffffffffffffffffffff021916908373ffffffffffffffffffffffffffffffffffffffff1602179055508173ffffffffffffffffffffffffffffffffffffffff168173ffffffffffffffffffffffffffffffffffffffff167f8be0079c531659141344cd1fd0a4f28419497f9722a3daafe3b4186f6b6457e060405160405180910390a35050565b600081519050919050565b7f4e487b7100000000000000000000000000000000000000000000000000000000600052604160045260246000fd5b7f4e487b7100000000000000000000000000000000000000000000000000000000600052602260045260246000fd5b600060028204905060018216806200021a57607f821691505b60208210810362000230576200022f620001d2565b5b50919050565b60008190508160005260206000209050919050565b60006020601f8301049050919050565b600082821b905092915050565b6000600883026200029a7fffffffffffffffffffffffffffffffffffffffffffffffffffffffffffffffff826200025b565b620002a686836200025b565b95508019841693508086168417925050509392505050565b6000819050919050565b6000819050919050565b6000620002f3620002ed620002e784620002be565b620002c8565b620002be565b9050919050565b6000819050919050565b6200030f83620002d2565b620003276200031e82620002fa565b84845462000268565b825550505050565b600090565b6200033e6200032f565b6200034b81848462000304565b505050565b5b8181101562000373576200036760008262000334565b60018101905062000351565b5050565b601f821115620003c2576200038c8162000236565b62000397846200024b565b81016020851015620003a7578190505b620003bf620003b6856200024b565b83018262000350565b50505b505050565b600082821c905092915050565b6000620003e760001984600802620003c7565b1980831691505092915050565b6000620004028383620003d4565b9150826002028217905092915050565b6200041d8262000198565b67ffffffffffffffff811115620004395762000438620001a3565b5b62000445825462000201565b6200045282828562000377565b600060209050601f8311600181146200048a576000841562000475578287015190505b620004818582620003f4565b865550620004f1565b601f1984166200049a8662000236565b60005b82811015620004c4578489015182556001820191506020850194506020810190506200049d565b86831015620004e45784890151620004e0601f891682620003d4565b8355505b6001600288020188555050505b505050505050565b612cfe80620005096000396000f3fe608060405234801561001057600080fd5b50600436106101215760003560e01c806370a08231116100ad578063b88d4fde11610071578063b88d4fde14610306578063c87b56dd14610322578063d0def52114610352578063e985e9c51461036e578063f2fde38b1461039e57610121565b806370a0823114610274578063715018a6146102a45780638da5cb5b146102ae57806395d89b41146102cc578063a22cb465146102ea57610121565b8063095ea7b3116100f4578063095ea7b3146101d4578063162094c4146101f057806323b872dd1461020c57806342842e0e146102285780636352211e1461024457610121565b806301ffc9a7146101265780630221e7851461015657806306fdde0314610186578063081812fc146101a4575b600080fd5b610140600480360381019061013b9190611adc565b6103ba565b60405161014d9190611b24565b60405180910390f35b610170600480360381019061016b9190611b75565b61049c565b60405161017d9190611c32565b60405180910390f35b61018e61053c565b60405161019b9190611c32565b60405180910390f35b6101be60048036038101906101b99190611b75565b6105ce565b6040516101cb9190611c95565b60405180910390f35b6101ee60048036038101906101e99190611cdc565b610614565b005b61020a60048036038101906102059190611e51565b61072b565b005b61022660048036038101906102219190611ead565b6107a0565b005b610242600480360381019061023d9190611ead565b610800565b005b61025e60048036038101906102599190611b75565b610820565b60405161026b9190611c95565b60405180910390f35b61028e60048036038101906102899190611f00565b6108a6565b60405161029b9190611f3c565b60405180910390f35b6102ac61095d565b005b6102b6610971565b6040516102c39190611c95565b60405180910390f35b6102d461099b565b6040516102e19190611c32565b60405180910390f35b61030460048036038101906102ff9190611f83565b610a2d565b005b610320600480360381019061031b9190612064565b610a43565b005b61033c60048036038101906103379190611b75565b610aa5565b6040516103499190611c32565b60405180910390f35b61036c600480360381019061036791906120e7565b610b92565b005b61038860048036038101906103839190612143565b610bda565b6040516103959190611b24565b60405180910390f35b6103b860048036038101906103b39190611f00565b610c6e565b005b60007f80ac58cd000000000000000000000000000000000000000000000000000000007bffffffffffffffffffffffffffffffffffffffffffffffffffffffff1916827bffffffffffffffffffffffffffffffffffffffffffffffffffffffff1916148061048557507f5b5e139f000000000000000000000000000000000000000000000000000000007bffffffffffffffffffffffffffffffffffffffffffffffffffffffff1916827bffffffffffffffffffffffffffffffffffffffffffffffffffffffff1916145b80610495575061049482610cf1565b5b9050919050565b600860205280600052604060002060009150905080546104bb906121b2565b80601f01602080910402602001604051908101604052809291908181526020018280546104e7906121b2565b80156105345780601f1061050957610100808354040283529160200191610534565b820191906000526020600020905b81548152906001019060200180831161051757829003601f168201915b505050505081565b60606000805461054b906121b2565b80601f0160208091040260200160405190810160405280929190818152602001828054610577906121b2565b80156105c45780601f10610599576101008083540402835291602001916105c4565b820191906000526020600020905b8154815290600101906020018083116105a757829003601f168201915b5050505050905090565b60006105d982610d5b565b6004600083815260200190815260200160002060009054906101000a900473ffffffffffffffffffffffffffffffffffffffff169050919050565b600061061f82610820565b90508073ffffffffffffffffffffffffffffffffffffffff168373ffffffffffffffffffffffffffffffffffffffff160361068f576040517f08c379a000000000000000000000000000000000000000000000000000000000815260040161068690612255565b60405180910390fd5b8073ffffffffffffffffffffffffffffffffffffffff166106ae610da6565b73ffffffffffffffffffffffffffffffffffffffff1614806106dd57506106dc816106d7610da6565b610bda565b5b61071c576040517f08c379a0000000000000000000000000000000000000000000000000000000008152600401610713906122e7565b60405180910390fd5b6107268383610dae565b505050565b610733610e67565b61073c82610ee5565b61077b576040517f08c379a000000000000000000000000000000000000000000000000000000000815260040161077290612353565b60405180910390fd5b8060086000848152602001908152602001600020908161079b919061251f565b505050565b6107b16107ab610da6565b82610f26565b6107f0576040517f08c379a00000000000000000000000000000000000000000000000000000000081526004016107e790612663565b60405180910390fd5b6107fb838383610fbb565b505050565b61081b83838360405180602001604052806000815250610a43565b505050565b60008061082c836112b4565b9050600073ffffffffffffffffffffffffffffffffffffffff168173ffffffffffffffffffffffffffffffffffffffff160361089d576040517f08c379a0000000000000000000000000000000000000000000000000000000008152600401610894906126cf565b60405180910390fd5b80915050919050565b60008073ffffffffffffffffffffffffffffffffffffffff168273ffffffffffffffffffffffffffffffffffffffff1603610916576040517f08c379a000000000000000000000000000000000000000000000000000000000815260040161090d90612761565b60405180910390fd5b600360008373ffffffffffffffffffffffffffffffffffffffff1673ffffffffffffffffffffffffffffffffffffffff168152602001908152602001600020549050919050565b610965610e67565b61096f60006112f1565b565b6000600660009054906101000a900473ffffffffffffffffffffffffffffffffffffffff16905090565b6060600180546109aa906121b2565b80601f01602080910402602001604051908101604052809291908181526020018280546109d6906121b2565b8015610a235780601f106109f857610100808354040283529160200191610a23565b820191906000526020600020905b815481529060010190602001808311610a0657829003601f168201915b5050505050905090565b610a3f610a38610da6565b83836113b7565b5050565b610a54610a4e610da6565b83610f26565b610a93576040517f08c379a0000000000000000000000000000000000000000000000000000000008152600401610a8a90612663565b60405180910390fd5b610a9f84848484611523565b50505050565b6060610ab082610ee5565b610aef576040517f08c379a0000000000000000000000000000000000000000000000000000000008152600401610ae690612353565b60405180910390fd5b600860008381526020019081526020016000208054610b0d906121b2565b80601f0160208091040260200160405190810160405280929190818152602001828054610b39906121b2565b8015610b865780601f10610b5b57610100808354040283529160200191610b86565b820191906000526020600020905b815481529060010190602001808311610b6957829003601f168201915b50505050509050919050565b6000610b9e600761157f565b9050610baa600761158d565b81600860008381526020019081526020016000209081610bca919061251f565b50610bd583826115a3565b505050565b6000600560008473ffffffffffffffffffffffffffffffffffffffff1673ffffffffffffffffffffffffffffffffffffffff16815260200190815260200160002060008373ffffffffffffffffffffffffffffffffffffffff1673ffffffffffffffffffffffffffffffffffffffff16815260200190815260200160002060009054906101000a900460ff16905092915050565b610c76610e67565b600073ffffffffffffffffffffffffffffffffffffffff168173ffffffffffffffffffffffffffffffffffffffff1603610ce5576040517f08c379a0000000000000000000000000000000000000000000000000000000008152600401610cdc906127f3565b60405180910390fd5b610cee816112f1565b50565b60007f01ffc9a7000000000000000000000000000000000000000000000000000000007bffffffffffffffffffffffffffffffffffffffffffffffffffffffff1916827bffffffffffffffffffffffffffffffffffffffffffffffffffffffff1916149050919050565b610d6481610ee5565b610da3576040517f08c379a0000000000000000000000000000000000000000000000000000000008152600401610d9a906126cf565b60405180910390fd5b50565b600033905090565b816004600083815260200190815260200160002060006101000a81548173ffffffffffffffffffffffffffffffffffffffff021916908373ffffffffffffffffffffffffffffffffffffffff160217905550808273ffffffffffffffffffffffffffffffffffffffff16610e2183610820565b73ffffffffffffffffffffffffffffffffffffffff167f8c5be1e5ebec7d5bd14f71427d1e84f3dd0314c0f7b2291e5b200ac8c7c3b92560405160405180910390a45050565b610e6f610da6565b73ffffffffffffffffffffffffffffffffffffffff16610e8d610971565b73ffffffffffffffffffffffffffffffffffffffff1614610ee3576040517f08c379a0000000000000000000000000000000000000000000000000000000008152600401610eda9061285f565b60405180910390fd5b565b60008073ffffffffffffffffffffffffffffffffffffffff16610f07836112b4565b73ffffffffffffffffffffffffffffffffffffffff1614159050919050565b600080610f3283610820565b90508073ffffffffffffffffffffffffffffffffffffffff168473ffffffffffffffffffffffffffffffffffffffff161480610f745750610f738185610bda565b5b80610fb257508373ffffffffffffffffffffffffffffffffffffffff16610f9a846105ce565b73ffffffffffffffffffffffffffffffffffffffff16145b91505092915050565b8273ffffffffffffffffffffffffffffffffffffffff16610fdb82610820565b73ffffffffffffffffffffffffffffffffffffffff1614611031576040517f08c379a0000000000000000000000000000000000000000000000000000000008152600401611028906128f1565b60405180910390fd5b600073ffffffffffffffffffffffffffffffffffffffff168273ffffffffffffffffffffffffffffffffffffffff16036110a0576040517f08c379a000000000000000000000000000000000000000000000000000000000815260040161109790612983565b60405180910390fd5b6110ad83838360016115c1565b8273ffffffffffffffffffffffffffffffffffffffff166110cd82610820565b73ffffffffffffffffffffffffffffffffffffffff1614611123576040517f08c379a000000000000000000000000000000000000000000000000000000000815260040161111a906128f1565b60405180910390fd5b6004600082815260200190815260200160002060006101000a81549073ffffffffffffffffffffffffffffffffffffffff02191690556001600360008573ffffffffffffffffffffffffffffffffffffffff1673ffffffffffffffffffffffffffffffffffffffff168152602001908152602001600020600082825403925050819055506001600360008473ffffffffffffffffffffffffffffffffffffffff1673ffffffffffffffffffffffffffffffffffffffff16815260200190815260200160002060008282540192505081905550816002600083815260200190815260200160002060006101000a81548173ffffffffffffffffffffffffffffffffffffffff021916908373ffffffffffffffffffffffffffffffffffffffff160217905550808273ffffffffffffffffffffffffffffffffffffffff168473ffffffffffffffffffffffffffffffffffffffff167fddf252ad1be2c89b69c2b068fc378daa952ba7f163c4a11628f55a4df523b3ef60405160405180910390a46112af8383836001611642565b505050565b60006002600083815260200190815260200160002060009054906101000a900473ffffffffffffffffffffffffffffffffffffffff169050919050565b6000600660009054906101000a900473ffffffffffffffffffffffffffffffffffffffff16905081600660006101000a81548173ffffffffffffffffffffffffffffffffffffffff021916908373ffffffffffffffffffffffffffffffffffffffff1602179055508173ffffffffffffffffffffffffffffffffffffffff168173ffffffffffffffffffffffffffffffffffffffff167f8be0079c531659141344cd1fd0a4f28419497f9722a3daafe3b4186f6b6457e060405160405180910390a35050565b8173ffffffffffffffffffffffffffffffffffffffff168373ffffffffffffffffffffffffffffffffffffffff1603611425576040517f08c379a000000000000000000000000000000000000000000000000000000000815260040161141c906129ef565b60405180910390fd5b80600560008573ffffffffffffffffffffffffffffffffffffffff1673ffffffffffffffffffffffffffffffffffffffff16815260200190815260200160002060008473ffffffffffffffffffffffffffffffffffffffff1673ffffffffffffffffffffffffffffffffffffffff16815260200190815260200160002060006101000a81548160ff0219169083151502179055508173ffffffffffffffffffffffffffffffffffffffff168373ffffffffffffffffffffffffffffffffffffffff167f17307eab39ab6107e8899845ad3d59bd9653f200f220920489ca2b5937696c31836040516115169190611b24565b60405180910390a3505050565b61152e848484610fbb565b61153a84848484611648565b611579576040517f08c379a000000000000000000000000000000000000000000000000000000000815260040161157090612a81565b60405180910390fd5b50505050565b600081600001549050919050565b6001816000016000828254019250508190555050565b6115bd8282604051806020016040528060008152506117cf565b5050565b600073ffffffffffffffffffffffffffffffffffffffff168473ffffffffffffffffffffffffffffffffffffffff1614611630576040517f08c379a000000000000000000000000000000000000000000000000000000000815260040161162790612aed565b60405180910390fd5b61163c8484848461182a565b50505050565b50505050565b60006116698473ffffffffffffffffffffffffffffffffffffffff16611830565b156117c2578373ffffffffffffffffffffffffffffffffffffffff1663150b7a02611692610da6565b8786866040518563ffffffff1660e01b81526004016116b49493929190612b62565b6020604051808303816000875af19250505080156116f057506040513d601f19601f820116820180604052508101906116ed9190612bc3565b60015b611772573d8060008114611720576040519150601f19603f3d011682016040523d82523d6000602084013e611725565b606091505b50600081510361176a576040517f08c379a000000000000000000000000000000000000000000000000000000000815260040161176190612a81565b60405180910390fd5b805181602001fd5b63150b7a0260e01b7bffffffffffffffffffffffffffffffffffffffffffffffffffffffff1916817bffffffffffffffffffffffffffffffffffffffffffffffffffffffff1916149150506117c7565b600190505b949350505050565b6117d98383611853565b6117e66000848484611648565b611825576040517f08c379a000000000000000000000000000000000000000000000000000000000815260040161181c90612a81565b60405180910390fd5b505050565b50505050565b6000808273ffffffffffffffffffffffffffffffffffffffff163b119050919050565b600073ffffffffffffffffffffffffffffffffffffffff168273ffffffffffffffffffffffffffffffffffffffff16036118c2576040517f08c379a00000000000000000000000000000000000000000000000000000000081526004016118b990612c3c565b60405180910390fd5b6118cb81610ee5565b1561190b576040517f08c379a000000000000000000000000000000000000000000000000000000000815260040161190290612ca8565b60405180910390fd5b6119196000838360016115c1565b61192281610ee5565b15611962576040517f08c379a000000000000000000000000000000000000000000000000000000000815260040161195990612ca8565b60405180910390fd5b6001600360008473ffffffffffffffffffffffffffffffffffffffff1673ffffffffffffffffffffffffffffffffffffffff16815260200190815260200160002060008282540192505081905550816002600083815260200190815260200160002060006101000a81548173ffffffffffffffffffffffffffffffffffffffff021916908373ffffffffffffffffffffffffffffffffffffffff160217905550808273ffffffffffffffffffffffffffffffffffffffff16600073ffffffffffffffffffffffffffffffffffffffff167fddf252ad1be2c89b69c2b068fc378daa952ba7f163c4a11628f55a4df523b3ef60405160405180910390a4611a6c600083836001611642565b5050565b6000604051905090565b600080fd5b600080fd5b60007fffffffff0000000000000000000000000000000000000000000000000000000082169050919050565b611ab981611a84565b8114611ac457600080fd5b50565b600081359050611ad681611ab0565b92915050565b600060208284031215611af257611af1611a7a565b5b6000611b0084828501611ac7565b91505092915050565b60008115159050919050565b611b1e81611b09565b82525050565b6000602082019050611b396000830184611b15565b92915050565b6000819050919050565b611b5281611b3f565b8114611b5d57600080fd5b50565b600081359050611b6f81611b49565b92915050565b600060208284031215611b8b57611b8a611a7a565b5b6000611b9984828501611b60565b91505092915050565b600081519050919050565b600082825260208201905092915050565b60005b83811015611bdc578082015181840152602081019050611bc1565b60008484015250505050565b6000601f19601f8301169050919050565b6000611c0482611ba2565b611c0e8185611bad565b9350611c1e818560208601611bbe565b611c2781611be8565b840191505092915050565b60006020820190508181036000830152611c4c8184611bf9565b905092915050565b600073ffffffffffffffffffffffffffffffffffffffff82169050919050565b6000611c7f82611c54565b9050919050565b611c8f81611c74565b82525050565b6000602082019050611caa6000830184611c86565b92915050565b611cb981611c74565b8114611cc457600080fd5b50565b600081359050611cd681611cb0565b92915050565b60008060408385031215611cf357611cf2611a7a565b5b6000611d0185828601611cc7565b9250506020611d1285828601611b60565b9150509250929050565b600080fd5b600080fd5b7f4e487b7100000000000000000000000000000000000000000000000000000000600052604160045260246000fd5b611d5e82611be8565b810181811067ffffffffffffffff82111715611d7d57611d7c611d26565b5b80604052505050565b6000611d90611a70565b9050611d9c8282611d55565b919050565b600067ffffffffffffffff821115611dbc57611dbb611d26565b5b611dc582611be8565b9050602081019050919050565b82818337600083830152505050565b6000611df4611def84611da1565b611d86565b905082815260208101848484011115611e1057611e0f611d21565b5b611e1b848285611dd2565b509392505050565b600082601f830112611e3857611e37611d1c565b5b8135611e48848260208601611de1565b91505092915050565b60008060408385031215611e6857611e67611a7a565b5b6000611e7685828601611b60565b925050602083013567ffffffffffffffff811115611e9757611e96611a7f565b5b611ea385828601611e23565b9150509250929050565b600080600060608486031215611ec657611ec5611a7a565b5b6000611ed486828701611cc7565b9350506020611ee586828701611cc7565b9250506040611ef686828701611b60565b9150509250925092565b600060208284031215611f1657611f15611a7a565b5b6000611f2484828501611cc7565b91505092915050565b611f3681611b3f565b82525050565b6000602082019050611f516000830184611f2d565b92915050565b611f6081611b09565b8114611f6b57600080fd5b50565b600081359050611f7d81611f57565b92915050565b60008060408385031215611f9a57611f99611a7a565b5b6000611fa885828601611cc7565b9250506020611fb985828601611f6e565b9150509250929050565b600067ffffffffffffffff821115611fde57611fdd611d26565b5b611fe782611be8565b9050602081019050919050565b600061200761200284611fc3565b611d86565b90508281526020810184848401111561202357612022611d21565b5b61202e848285611dd2565b509392505050565b600082601f83011261204b5761204a611d1c565b5b813561205b848260208601611ff4565b91505092915050565b6000806000806080858703121561207e5761207d611a7a565b5b600061208c87828801611cc7565b945050602061209d87828801611cc7565b93505060406120ae87828801611b60565b925050606085013567ffffffffffffffff8111156120cf576120ce611a7f565b5b6120db87828801612036565b91505092959194509250565b600080604083850312156120fe576120fd611a7a565b5b600061210c85828601611cc7565b925050602083013567ffffffffffffffff81111561212d5761212c611a7f565b5b61213985828601611e23565b9150509250929050565b6000806040838503121561215a57612159611a7a565b5b600061216885828601611cc7565b925050602061217985828601611cc7565b9150509250929050565b7f4e487b7100000000000000000000000000000000000000000000000000000000600052602260045260246000fd5b600060028204905060018216806121ca57607f821691505b6020821081036121dd576121dc612183565b5b50919050565b7f4552433732313a20617070726f76616c20746f2063757272656e74206f776e6560008201527f7200000000000000000000000000000000000000000000000000000000000000602082015250565b600061223f602183611bad565b915061224a826121e3565b604082019050919050565b6000602082019050818103600083015261226e81612232565b9050919050565b7f4552433732313a20617070726f76652063616c6c6572206973206e6f7420746f60008201527f6b656e206f776e6572206f7220617070726f76656420666f7220616c6c000000602082015250565b60006122d1603d83611bad565b91506122dc82612275565b604082019050919050565b60006020820190508181036000830152612300816122c4565b9050919050565b7f4e6f6e2d6578697374656e7420746f6b656e0000000000000000000000000000600082015250565b600061233d601283611bad565b915061234882612307565b602082019050919050565b6000602082019050818103600083015261236c81612330565b9050919050565b60008190508160005260206000209050919050565b60006020601f8301049050919050565b600082821b905092915050565b6000600883026123d57fffffffffffffffffffffffffffffffffffffffffffffffffffffffffffffffff82612398565b6123df8683612398565b95508019841693508086168417925050509392505050565b6000819050919050565b600061241c61241761241284611b3f565b6123f7565b611b3f565b9050919050565b6000819050919050565b61243683612401565b61244a61244282612423565b8484546123a5565b825550505050565b600090565b61245f612452565b61246a81848461242d565b505050565b5b8181101561248e57612483600082612457565b600181019050612470565b5050565b601f8211156124d3576124a481612373565b6124ad84612388565b810160208510156124bc578190505b6124d06124c885612388565b83018261246f565b50505b505050565b600082821c905092915050565b60006124f6600019846008026124d8565b1980831691505092915050565b600061250f83836124e5565b9150826002028217905092915050565b61252882611ba2565b67ffffffffffffffff81111561254157612540611d26565b5b61254b82546121b2565b612556828285612492565b600060209050601f8311600181146125895760008415612577578287015190505b6125818582612503565b8655506125e9565b601f19841661259786612373565b60005b828110156125bf5784890151825560018201915060208501945060208101905061259a565b868310156125dc57848901516125d8601f8916826124e5565b8355505b6001600288020188555050505b505050505050565b7f4552433732313a2063616c6c6572206973206e6f7420746f6b656e206f776e6560008201527f72206f7220617070726f76656400000000000000000000000000000000000000602082015250565b600061264d602d83611bad565b9150612658826125f1565b604082019050919050565b6000602082019050818103600083015261267c81612640565b9050919050565b7f4552433732313a20696e76616c696420746f6b656e2049440000000000000000600082015250565b60006126b9601883611bad565b91506126c482612683565b602082019050919050565b600060208201905081810360008301526126e8816126ac565b9050919050565b7f4552433732313a2061646472657373207a65726f206973206e6f74206120766160008201527f6c6964206f776e65720000000000000000000000000000000000000000000000602082015250565b600061274b602983611bad565b9150612756826126ef565b604082019050919050565b6000602082019050818103600083015261277a8161273e565b9050919050565b7f4f776e61626c653a206e6577206f776e657220697320746865207a65726f206160008201527f6464726573730000000000000000000000000000000000000000000000000000602082015250565b60006127dd602683611bad565b91506127e882612781565b604082019050919050565b6000602082019050818103600083015261280c816127d0565b9050919050565b7f4f776e61626c653a2063616c6c6572206973206e6f7420746865206f776e6572600082015250565b6000612849602083611bad565b915061285482612813565b602082019050919050565b600060208201905081810360008301526128788161283c565b9050919050565b7f4552433732313a207472616e736665722066726f6d20696e636f72726563742060008201527f6f776e6572000000000000000000000000000000000000000000000000000000602082015250565b60006128db602583611bad565b91506128e68261287f565b604082019050919050565b6000602082019050818103600083015261290a816128ce565b9050919050565b7f4552433732313a207472616e7366657220746f20746865207a65726f2061646460008201527f7265737300000000000000000000000000000000000000000000000000000000602082015250565b600061296d602483611bad565b915061297882612911565b604082019050919050565b6000602082019050818103600083015261299c81612960565b9050919050565b7f4552433732313a20617070726f766520746f2063616c6c657200000000000000600082015250565b60006129d9601983611bad565b91506129e4826129a3565b602082019050919050565b60006020820190508181036000830152612a08816129cc565b9050919050565b7f4552433732313a207472616e7366657220746f206e6f6e20455243373231526560008201527f63656976657220696d706c656d656e7465720000000000000000000000000000602082015250565b6000612a6b603283611bad565b9150612a7682612a0f565b604082019050919050565b60006020820190508181036000830152612a9a81612a5e565b9050919050565b7f546f6b656e206e6f74207472616e7366657261626c6500000000000000000000600082015250565b6000612ad7601683611bad565b9150612ae282612aa1565b602082019050919050565b60006020820190508181036000830152612b0681612aca565b9050919050565b600081519050919050565b600082825260208201905092915050565b6000612b3482612b0d565b612b3e8185612b18565b9350612b4e818560208601611bbe565b612b5781611be8565b840191505092915050565b6000608082019050612b776000830187611c86565b612b846020830186611c86565b612b916040830185611f2d565b8181036060830152612ba38184612b29565b905095945050505050565b600081519050612bbd81611ab0565b92915050565b600060208284031215612bd957612bd8611a7a565b5b6000612be784828501612bae565b91505092915050565b7f4552433732313a206d696e7420746f20746865207a65726f2061646472657373600082015250565b6000612c26602083611bad565b9150612c3182612bf0565b602082019050919050565b60006020820190508181036000830152612c5581612c19565b9050919050565b7f4552433732313a20746f6b656e20616c7265616479206d696e74656400000000600082015250565b6000612c92601c83611bad565b9150612c9d82612c5c565b602082019050919050565b60006020820190508181036000830152612cc181612c85565b905091905056fea2646970667358221220af132fcd2fe0dc117ecb9024c3b5db69bcff1e30c0541e2822b730babbac8ac664736f6c63430008120033",
  "linkReferences": {},
  "deployedLinkReferences": {}
}